{
  "address": "0xCf7Ed3AccA5a467e9e704C703E8D87F634fB0Fc9",
  "abi": [
    {
      "inputs": [
        {
          "internalType": "address",
          "name": "myAddress",
          "type": "address"
        },
        {
          "internalType": "address",
          "name": "vrfCoordinatorV2",
          "type": "address"
        },
        {
          "internalType": "bytes32",
          "name": "gasLane",
          "type": "bytes32"
        },
        {
          "internalType": "uint64",
          "name": "subId",
          "type": "uint64"
        },
        {
          "internalType": "uint32",
          "name": "cbGasLimit",
          "type": "uint32"
        },
        {
          "internalType": "address",
          "name": "cron",
          "type": "address"
        }
      ],
      "stateMutability": "nonpayable",
      "type": "constructor"
    },
    {
      "inputs": [
        {
          "internalType": "address",
          "name": "have",
          "type": "address"
        },
        {
          "internalType": "address",
          "name": "want",
          "type": "address"
        }
      ],
      "name": "OnlyCoordinatorCanFulfill",
      "type": "error"
    },
    {
      "anonymous": false,
      "inputs": [
        {
          "indexed": false,
          "internalType": "address",
          "name": "",
          "type": "address"
        }
      ],
      "name": "AddedNewParticipant",
      "type": "event"
    },
    {
      "anonymous": false,
      "inputs": [
        {
          "indexed": false,
          "internalType": "uint256",
          "name": "",
          "type": "uint256"
        }
      ],
      "name": "DeployersRoyalty",
      "type": "event"
    },
    {
      "anonymous": false,
      "inputs": [
        {
          "indexed": false,
          "internalType": "uint256",
          "name": "",
          "type": "uint256"
        }
      ],
      "name": "PreviousParticipation",
      "type": "event"
    },
    {
      "anonymous": false,
      "inputs": [
        {
          "indexed": false,
          "internalType": "uint256",
          "name": "",
          "type": "uint256"
        }
      ],
      "name": "PreviousPayout",
      "type": "event"
    },
    {
      "anonymous": false,
      "inputs": [
        {
          "indexed": false,
          "internalType": "address",
          "name": "",
          "type": "address"
        }
      ],
      "name": "PreviousWinner",
      "type": "event"
    },
    {
      "inputs": [
        {
          "internalType": "uint256",
          "name": "amount",
          "type": "uint256"
        }
      ],
      "name": "fund",
      "outputs": [],
      "stateMutability": "nonpayable",
      "type": "function"
    },
    {
      "inputs": [
        {
          "internalType": "address",
          "name": "",
          "type": "address"
        }
      ],
      "name": "fundsAccounting",
      "outputs": [
        {
          "internalType": "uint256",
          "name": "",
          "type": "uint256"
        }
      ],
      "stateMutability": "view",
      "type": "function"
    },
    {
      "inputs": [
        {
          "internalType": "address",
          "name": "participant",
          "type": "address"
        }
      ],
      "name": "fundsOf",
      "outputs": [
        {
          "internalType": "uint256",
          "name": "",
          "type": "uint256"
        }
      ],
      "stateMutability": "view",
      "type": "function"
    },
    {
      "inputs": [
        {
          "internalType": "address",
          "name": "sender",
          "type": "address"
        }
      ],
      "name": "isRegistered",
      "outputs": [
        {
          "internalType": "bool",
          "name": "",
          "type": "bool"
        }
      ],
      "stateMutability": "view",
      "type": "function"
    },
    {
      "inputs": [],
      "name": "jobScheduler",
      "outputs": [
        {
          "internalType": "address",
          "name": "",
          "type": "address"
        }
      ],
      "stateMutability": "view",
      "type": "function"
    },
    {
      "inputs": [
        {
          "internalType": "uint256",
          "name": "",
          "type": "uint256"
        }
      ],
      "name": "participants",
      "outputs": [
        {
          "internalType": "address",
          "name": "",
          "type": "address"
        }
      ],
      "stateMutability": "view",
      "type": "function"
    },
    {
      "inputs": [],
      "name": "payOut",
      "outputs": [],
      "stateMutability": "nonpayable",
      "type": "function"
    },
    {
      "inputs": [
        {
          "internalType": "uint256",
          "name": "requestId",
          "type": "uint256"
        },
        {
          "internalType": "uint256[]",
          "name": "randomWords",
          "type": "uint256[]"
        }
      ],
      "name": "rawFulfillRandomWords",
      "outputs": [],
      "stateMutability": "nonpayable",
      "type": "function"
    },
    {
      "inputs": [],
      "name": "totalFunds",
      "outputs": [
        {
          "internalType": "uint256",
          "name": "",
          "type": "uint256"
        }
      ],
      "stateMutability": "view",
      "type": "function"
    },
    {
      "inputs": [
        {
          "internalType": "uint256",
          "name": "amount",
          "type": "uint256"
        }
      ],
      "name": "withdraw",
      "outputs": [],
      "stateMutability": "nonpayable",
      "type": "function"
    }
  ],
  "transactionHash": "0x0b7d8f289bbf15cafc26dd740014f68d12c7fad67f3336dc1326610eac11685b",
  "args": [
    "0xe7f1725E7734CE288F8367e1Bb143E90bb3F0512",
    "0x5FbDB2315678afecb367f032d93F642f64180aa3",
    "0x79d3d8832d904592c0bf9818b621522c988bb8b0c05cdc3b15aea1b6e8db0c15",
    "1",
    "2000000",
    "0xa24DEb768C54084AD92E269d28fC64bFe41B77ae"
  ],
  "numDeployments": 1,
  "solcInputHash": "99b2a56213b6f1bd0ebe96e911e72832",
  "bytecode": "0x60e0604052600163ffffffff1660a09063ffffffff16815250600361ffff1660c09061ffff168152503480156200003557600080fd5b50604051620025053803806200250583398181016040528101906200005b91906200031c565b848073ffffffffffffffffffffffffffffffffffffffff1660808173ffffffffffffffffffffffffffffffffffffffff168152505050856000806101000a81548173ffffffffffffffffffffffffffffffffffffffff021916908373ffffffffffffffffffffffffffffffffffffffff16021790555033600260006101000a81548173ffffffffffffffffffffffffffffffffffffffff021916908373ffffffffffffffffffffffffffffffffffffffff16021790555084600160006101000a81548173ffffffffffffffffffffffffffffffffffffffff021916908373ffffffffffffffffffffffffffffffffffffffff1602179055508360078190555082600660006101000a81548167ffffffffffffffff021916908367ffffffffffffffff16021790555081600660086101000a81548163ffffffff021916908363ffffffff16021790555080600460006101000a81548173ffffffffffffffffffffffffffffffffffffffff021916908373ffffffffffffffffffffffffffffffffffffffff160217905550505050505050620003b8565b600080fd5b600073ffffffffffffffffffffffffffffffffffffffff82169050919050565b60006200022382620001f6565b9050919050565b620002358162000216565b81146200024157600080fd5b50565b60008151905062000255816200022a565b92915050565b6000819050919050565b62000270816200025b565b81146200027c57600080fd5b50565b600081519050620002908162000265565b92915050565b600067ffffffffffffffff82169050919050565b620002b58162000296565b8114620002c157600080fd5b50565b600081519050620002d581620002aa565b92915050565b600063ffffffff82169050919050565b620002f681620002db565b81146200030257600080fd5b50565b6000815190506200031681620002eb565b92915050565b60008060008060008060c087890312156200033c576200033b620001f1565b5b60006200034c89828a0162000244565b96505060206200035f89828a0162000244565b95505060406200037289828a016200027f565b94505060606200038589828a01620002c4565b93505060806200039889828a0162000305565b92505060a0620003ab89828a0162000244565b9150509295509295509295565b60805160a05160c051612116620003ef600039600061074d01526000610781015260008181610225015261027901526121166000f3fe608060405234801561001057600080fd5b506004361061009e5760003560e01c8063968ed60011610066578063968ed60014610159578063c205240314610177578063c3c5a54714610181578063ca1d209d146101b1578063ec0f68d8146101cd5761009e565b80630c30cb8e146100a35780631fe543e3146100c15780632e1a7d4d146100dd57806335c1d349146100f95780634324379714610129575b600080fd5b6100ab6101fd565b6040516100b891906117b4565b60405180910390f35b6100db60048036038101906100d69190611972565b610223565b005b6100f760048036038101906100f291906119ce565b6102e3565b005b610113600480360381019061010e91906119ce565b6105d5565b60405161012091906117b4565b60405180910390f35b610143600480360381019061013e9190611a27565b610614565b6040516101509190611a63565b60405180910390f35b61016161065d565b60405161016e9190611a63565b60405180910390f35b61017f610663565b005b61019b60048036038101906101969190611a27565b610806565b6040516101a89190611a99565b60405180910390f35b6101cb60048036038101906101c691906119ce565b6108b4565b005b6101e760048036038101906101e29190611a27565b610ae9565b6040516101f49190611a63565b60405180910390f35b600460009054906101000a900473ffffffffffffffffffffffffffffffffffffffff1681565b7f000000000000000000000000000000000000000000000000000000000000000073ffffffffffffffffffffffffffffffffffffffff163373ffffffffffffffffffffffffffffffffffffffff16146102d557337f00000000000000000000000000000000000000000000000000000000000000006040517f1cf993f40000000000000000000000000000000000000000000000000000000081526004016102cc929190611ab4565b60405180910390fd5b6102df8282610b01565b5050565b8080600860003373ffffffffffffffffffffffffffffffffffffffff1673ffffffffffffffffffffffffffffffffffffffff168152602001908152602001600020541015610366576040517f08c379a000000000000000000000000000000000000000000000000000000000815260040161035d90611b60565b60405180910390fd5b6000600860003373ffffffffffffffffffffffffffffffffffffffff1673ffffffffffffffffffffffffffffffffffffffff168152602001908152602001600020549050600583826103b89190611baf565b106104c95760008054906101000a900473ffffffffffffffffffffffffffffffffffffffff1673ffffffffffffffffffffffffffffffffffffffff1663a9059cbb33856040518363ffffffff1660e01b8152600401610418929190611be3565b6020604051808303816000875af1158015610437573d6000803e3d6000fd5b505050506040513d601f19601f8201168201806040525081019061045b9190611c38565b5082816104689190611baf565b600860003373ffffffffffffffffffffffffffffffffffffffff1673ffffffffffffffffffffffffffffffffffffffff1681526020019081526020016000208190555082600560008282546104bd9190611baf565b925050819055506105d0565b60008054906101000a900473ffffffffffffffffffffffffffffffffffffffff1673ffffffffffffffffffffffffffffffffffffffff1663a9059cbb33836040518363ffffffff1660e01b8152600401610524929190611be3565b6020604051808303816000875af1158015610543573d6000803e3d6000fd5b505050506040513d601f19601f820116820180604052508101906105679190611c38565b506000600860003373ffffffffffffffffffffffffffffffffffffffff1673ffffffffffffffffffffffffffffffffffffffff1681526020019081526020016000208190555080600560008282546105bf9190611baf565b925050819055506105cf33610be6565b5b505050565b600381815481106105e557600080fd5b906000526020600020016000915054906101000a900473ffffffffffffffffffffffffffffffffffffffff1681565b6000600860008373ffffffffffffffffffffffffffffffffffffffff1673ffffffffffffffffffffffffffffffffffffffff168152602001908152602001600020549050919050565b60055481565b600460009054906101000a900473ffffffffffffffffffffffffffffffffffffffff1673ffffffffffffffffffffffffffffffffffffffff163373ffffffffffffffffffffffffffffffffffffffff16146106f3576040517f08c379a00000000000000000000000000000000000000000000000000000000081526004016106ea90611cd7565b60405180910390fd5b600160009054906101000a900473ffffffffffffffffffffffffffffffffffffffff1673ffffffffffffffffffffffffffffffffffffffff16635d3b1d30600754600660009054906101000a900467ffffffffffffffff167f0000000000000000000000000000000000000000000000000000000000000000600660089054906101000a900463ffffffff167f00000000000000000000000000000000000000000000000000000000000000006040518663ffffffff1660e01b81526004016107c0959493929190611d6f565b6020604051808303816000875af11580156107df573d6000803e3d6000fd5b505050506040513d601f19601f820116820180604052508101906108039190611dd7565b50565b600080600090505b6003805490508110156108a9578273ffffffffffffffffffffffffffffffffffffffff166003828154811061084657610845611e04565b5b9060005260206000200160009054906101000a900473ffffffffffffffffffffffffffffffffffffffff1673ffffffffffffffffffffffffffffffffffffffff16036108965760019150506108af565b80806108a190611e33565b91505061080e565b50600090505b919050565b8061c3508110156108fa576040517f08c379a00000000000000000000000000000000000000000000000000000000081526004016108f190611ec7565b60405180910390fd5b60008054906101000a900473ffffffffffffffffffffffffffffffffffffffff1673ffffffffffffffffffffffffffffffffffffffff166323b872dd3330856040518463ffffffff1660e01b815260040161095793929190611ee7565b6020604051808303816000875af1158015610976573d6000803e3d6000fd5b505050506040513d601f19601f8201168201806040525081019061099a9190611c38565b50816005546109a99190611f1e565b60058190555081600860003373ffffffffffffffffffffffffffffffffffffffff1673ffffffffffffffffffffffffffffffffffffffff168152602001908152602001600020546109fa9190611f1e565b600860003373ffffffffffffffffffffffffffffffffffffffff1673ffffffffffffffffffffffffffffffffffffffff16815260200190815260200160002081905550610a4633610806565b610ae5576003339080600181540180825580915050600190039060005260206000200160009091909190916101000a81548173ffffffffffffffffffffffffffffffffffffffff021916908373ffffffffffffffffffffffffffffffffffffffff1602179055507faf6f69425461b0ffe8f914007a16c055fc09822f2053c0e737bec7ca973429d033604051610adc91906117b4565b60405180910390a15b5050565b60086020528060005260406000206000915090505481565b600160009054906101000a900473ffffffffffffffffffffffffffffffffffffffff1673ffffffffffffffffffffffffffffffffffffffff163373ffffffffffffffffffffffffffffffffffffffff1614610b91576040517f08c379a0000000000000000000000000000000000000000000000000000000008152600401610b8890611fc4565b60405180910390fd5b600060038054905082600081518110610bad57610bac611e04565b5b6020026020010151610bbf9190612013565b90506000610bcb610e39565b9050610bd78282610f3a565b610be081611254565b50505050565b6000600380549050905060005b600380549050811015610cd4578273ffffffffffffffffffffffffffffffffffffffff1660038281548110610c2b57610c2a611e04565b5b9060005260206000200160009054906101000a900473ffffffffffffffffffffffffffffffffffffffff1673ffffffffffffffffffffffffffffffffffffffff1603610cc15760038181548110610c8557610c84611e04565b5b9060005260206000200160006101000a81549073ffffffffffffffffffffffffffffffffffffffff02191690558180610cbd90612044565b9250505b8080610ccc90611e33565b915050610bf3565b5060008167ffffffffffffffff811115610cf157610cf061182f565b5b604051908082528060200260200182016040528015610d1f5781602001602082028036833780820191505090505b5090506000805b600380549050811015610e1b57600060038281548110610d4957610d48611e04565b5b9060005260206000200160009054906101000a900473ffffffffffffffffffffffffffffffffffffffff169050600073ffffffffffffffffffffffffffffffffffffffff168173ffffffffffffffffffffffffffffffffffffffff1614610e075780848481518110610dbe57610dbd611e04565b5b602002602001019073ffffffffffffffffffffffffffffffffffffffff16908173ffffffffffffffffffffffffffffffffffffffff16815250508280610e0390611e33565b9350505b508080610e1390611e33565b915050610d26565b508160039080519060200190610e329291906116cc565b5050505050565b600080600554905060005b600380549050811015610f3257600060038281548110610e6757610e66611e04565b5b9060005260206000200160009054906101000a900473ffffffffffffffffffffffffffffffffffffffff16905082600860008373ffffffffffffffffffffffffffffffffffffffff1673ffffffffffffffffffffffffffffffffffffffff168152602001908152602001600020541015610f1e57600860008273ffffffffffffffffffffffffffffffffffffffff1673ffffffffffffffffffffffffffffffffffffffff1681526020019081526020016000205492505b508080610f2a90611e33565b915050610e44565b508091505090565b600060038054905082610f4d919061206d565b905060006009600a83610f6091906120af565b610f6a919061206d565b905060008183610f7a9190611baf565b905060008054906101000a900473ffffffffffffffffffffffffffffffffffffffff1673ffffffffffffffffffffffffffffffffffffffff1663a9059cbb60038781548110610fcc57610fcb611e04565b5b9060005260206000200160009054906101000a900473ffffffffffffffffffffffffffffffffffffffff16846040518363ffffffff1660e01b8152600401611015929190611be3565b6020604051808303816000875af1158015611034573d6000803e3d6000fd5b505050506040513d601f19601f820116820180604052508101906110589190611c38565b5060008054906101000a900473ffffffffffffffffffffffffffffffffffffffff1673ffffffffffffffffffffffffffffffffffffffff1663a9059cbb600260009054906101000a900473ffffffffffffffffffffffffffffffffffffffff16836040518363ffffffff1660e01b81526004016110d6929190611be3565b6020604051808303816000875af11580156110f5573d6000803e3d6000fd5b505050506040513d601f19601f820116820180604052508101906111199190611c38565b50826005546111289190611baf565b6005819055507f9a277cc97a03c47d00ff80ce61a1b8f79688b456b031008df9da75883e7aa11c6003868154811061116357611162611e04565b5b9060005260206000200160009054906101000a900473ffffffffffffffffffffffffffffffffffffffff1660405161119b91906117b4565b60405180910390a17fa034bbb3ba3f2b69af90fba5d5828f19e88872f0d30e1fe3a404bfc100c2c30b826040516111d29190611a63565b60405180910390a17f3f79bb59a38787bb4e4e4e47abcad661b90db838c69fa5b6e09bbe8ac627f95360038054905060405161120e9190611a63565b60405180910390a17f8315180d5d505ce8b9d5d4058292c274a490236949aff4594c36b2c9c772e228816040516112459190611a63565b60405180910390a15050505050565b6000600380549050905060005b6003805490508110156115675760006003828154811061128457611283611e04565b5b9060005260206000200160009054906101000a900473ffffffffffffffffffffffffffffffffffffffff16905083600860008373ffffffffffffffffffffffffffffffffffffffff1673ffffffffffffffffffffffffffffffffffffffff168152602001908152602001600020546112fc9190611baf565b600860008373ffffffffffffffffffffffffffffffffffffffff1673ffffffffffffffffffffffffffffffffffffffff1681526020019081526020016000208190555061c350600860008373ffffffffffffffffffffffffffffffffffffffff1673ffffffffffffffffffffffffffffffffffffffff1681526020019081526020016000205410156115535760008054906101000a900473ffffffffffffffffffffffffffffffffffffffff1673ffffffffffffffffffffffffffffffffffffffff1663a9059cbb82600860008573ffffffffffffffffffffffffffffffffffffffff1673ffffffffffffffffffffffffffffffffffffffff168152602001908152602001600020546040518363ffffffff1660e01b8152600401611422929190611be3565b6020604051808303816000875af1158015611441573d6000803e3d6000fd5b505050506040513d601f19601f820116820180604052508101906114659190611c38565b50600860008273ffffffffffffffffffffffffffffffffffffffff1673ffffffffffffffffffffffffffffffffffffffff16815260200190815260200160002054600560008282546114b79190611baf565b925050819055506000600860008373ffffffffffffffffffffffffffffffffffffffff1673ffffffffffffffffffffffffffffffffffffffff168152602001908152602001600020819055506003828154811061151757611516611e04565b5b9060005260206000200160006101000a81549073ffffffffffffffffffffffffffffffffffffffff0219169055828061154f90612044565b9350505b50808061155f90611e33565b915050611261565b5060008167ffffffffffffffff8111156115845761158361182f565b5b6040519080825280602002602001820160405280156115b25781602001602082028036833780820191505090505b5090506000805b6003805490508110156116ae576000600382815481106115dc576115db611e04565b5b9060005260206000200160009054906101000a900473ffffffffffffffffffffffffffffffffffffffff169050600073ffffffffffffffffffffffffffffffffffffffff168173ffffffffffffffffffffffffffffffffffffffff161461169a578084848151811061165157611650611e04565b5b602002602001019073ffffffffffffffffffffffffffffffffffffffff16908173ffffffffffffffffffffffffffffffffffffffff1681525050828061169690611e33565b9350505b5080806116a690611e33565b9150506115b9565b5081600390805190602001906116c59291906116cc565b5050505050565b828054828255906000526020600020908101928215611745579160200282015b828111156117445782518260006101000a81548173ffffffffffffffffffffffffffffffffffffffff021916908373ffffffffffffffffffffffffffffffffffffffff160217905550916020019190600101906116ec565b5b5090506117529190611756565b5090565b5b8082111561176f576000816000905550600101611757565b5090565b600073ffffffffffffffffffffffffffffffffffffffff82169050919050565b600061179e82611773565b9050919050565b6117ae81611793565b82525050565b60006020820190506117c960008301846117a5565b92915050565b6000604051905090565b600080fd5b600080fd5b6000819050919050565b6117f6816117e3565b811461180157600080fd5b50565b600081359050611813816117ed565b92915050565b600080fd5b6000601f19601f8301169050919050565b7f4e487b7100000000000000000000000000000000000000000000000000000000600052604160045260246000fd5b6118678261181e565b810181811067ffffffffffffffff821117156118865761188561182f565b5b80604052505050565b60006118996117cf565b90506118a5828261185e565b919050565b600067ffffffffffffffff8211156118c5576118c461182f565b5b602082029050602081019050919050565b600080fd5b60006118ee6118e9846118aa565b61188f565b90508083825260208201905060208402830185811115611911576119106118d6565b5b835b8181101561193a57806119268882611804565b845260208401935050602081019050611913565b5050509392505050565b600082601f83011261195957611958611819565b5b81356119698482602086016118db565b91505092915050565b60008060408385031215611989576119886117d9565b5b600061199785828601611804565b925050602083013567ffffffffffffffff8111156119b8576119b76117de565b5b6119c485828601611944565b9150509250929050565b6000602082840312156119e4576119e36117d9565b5b60006119f284828501611804565b91505092915050565b611a0481611793565b8114611a0f57600080fd5b50565b600081359050611a21816119fb565b92915050565b600060208284031215611a3d57611a3c6117d9565b5b6000611a4b84828501611a12565b91505092915050565b611a5d816117e3565b82525050565b6000602082019050611a786000830184611a54565b92915050565b60008115159050919050565b611a9381611a7e565b82525050565b6000602082019050611aae6000830184611a8a565b92915050565b6000604082019050611ac960008301856117a5565b611ad660208301846117a5565b9392505050565b600082825260208201905092915050565b7f596f7520646f206e6f742068617665207468697320616d6f756e74206f66206660008201527f756e6473207374616b6564210000000000000000000000000000000000000000602082015250565b6000611b4a602c83611add565b9150611b5582611aee565b604082019050919050565b60006020820190508181036000830152611b7981611b3d565b9050919050565b7f4e487b7100000000000000000000000000000000000000000000000000000000600052601160045260246000fd5b6000611bba826117e3565b9150611bc5836117e3565b9250828203905081811115611bdd57611bdc611b80565b5b92915050565b6000604082019050611bf860008301856117a5565b611c056020830184611a54565b9392505050565b611c1581611a7e565b8114611c2057600080fd5b50565b600081519050611c3281611c0c565b92915050565b600060208284031215611c4e57611c4d6117d9565b5b6000611c5c84828501611c23565b91505092915050565b7f4f6e6c7920436861696e6c696e6b204175746f6d6174696f6e204a6f6220536360008201527f686564756c65722063616e2063616c6c20746869732066756e6374696f6e2100602082015250565b6000611cc1603f83611add565b9150611ccc82611c65565b604082019050919050565b60006020820190508181036000830152611cf081611cb4565b9050919050565b6000819050919050565b611d0a81611cf7565b82525050565b600067ffffffffffffffff82169050919050565b611d2d81611d10565b82525050565b600061ffff82169050919050565b611d4a81611d33565b82525050565b600063ffffffff82169050919050565b611d6981611d50565b82525050565b600060a082019050611d846000830188611d01565b611d916020830187611d24565b611d9e6040830186611d41565b611dab6060830185611d60565b611db86080830184611d60565b9695505050505050565b600081519050611dd1816117ed565b92915050565b600060208284031215611ded57611dec6117d9565b5b6000611dfb84828501611dc2565b91505092915050565b7f4e487b7100000000000000000000000000000000000000000000000000000000600052603260045260246000fd5b6000611e3e826117e3565b91507fffffffffffffffffffffffffffffffffffffffffffffffffffffffffffffffff8203611e7057611e6f611b80565b5b600182019050919050565b7f496e73756666696369656e742066756e64696e67000000000000000000000000600082015250565b6000611eb1601483611add565b9150611ebc82611e7b565b602082019050919050565b60006020820190508181036000830152611ee081611ea4565b9050919050565b6000606082019050611efc60008301866117a5565b611f0960208301856117a5565b611f166040830184611a54565b949350505050565b6000611f29826117e3565b9150611f34836117e3565b9250828201905080821115611f4c57611f4b611b80565b5b92915050565b7f4f6e6c792056524620436f6f7264696e61746f722063616e2063616c6c20746860008201527f69732066756e6374696f6e210000000000000000000000000000000000000000602082015250565b6000611fae602c83611add565b9150611fb982611f52565b604082019050919050565b60006020820190508181036000830152611fdd81611fa1565b9050919050565b7f4e487b7100000000000000000000000000000000000000000000000000000000600052601260045260246000fd5b600061201e826117e3565b9150612029836117e3565b92508261203957612038611fe4565b5b828206905092915050565b600061204f826117e3565b91506000820361206257612061611b80565b5b600182039050919050565b6000612078826117e3565b9150612083836117e3565b9250828202612091816117e3565b915082820484148315176120a8576120a7611b80565b5b5092915050565b60006120ba826117e3565b91506120c5836117e3565b9250826120d5576120d4611fe4565b5b82820490509291505056fea2646970667358221220c9c2ae3a5867dc800c68e1e4d2fafad089d3a2b06947319100e5e5c647cc417864736f6c63430008110033",
  "devdoc": {
    "kind": "dev",
    "methods": {},
    "version": 1
  },
  "userdoc": {
    "kind": "user",
    "methods": {},
    "version": 1
  },
  "storageLayout": {
    "storage": [
      {
        "astId": 1141,
        "contract": "contracts/Lottery.sol:Lottery",
        "label": "casinoToken",
        "offset": 0,
        "slot": "0",
        "type": "t_contract(CasinoToken)1131"
      },
      {
        "astId": 1144,
        "contract": "contracts/Lottery.sol:Lottery",
        "label": "vrfCoordinator",
        "offset": 0,
        "slot": "1",
        "type": "t_contract(VRFCoordinatorV2Interface)153"
      },
      {
        "astId": 1172,
        "contract": "contracts/Lottery.sol:Lottery",
        "label": "deployer",
        "offset": 0,
        "slot": "2",
        "type": "t_address"
      },
      {
        "astId": 1175,
        "contract": "contracts/Lottery.sol:Lottery",
        "label": "participants",
        "offset": 0,
        "slot": "3",
        "type": "t_array(t_address)dyn_storage"
      },
      {
        "astId": 1177,
        "contract": "contracts/Lottery.sol:Lottery",
        "label": "jobScheduler",
        "offset": 0,
        "slot": "4",
        "type": "t_address"
      },
      {
        "astId": 1179,
        "contract": "contracts/Lottery.sol:Lottery",
        "label": "totalFunds",
        "offset": 0,
        "slot": "5",
        "type": "t_uint256"
      },
      {
        "astId": 1181,
        "contract": "contracts/Lottery.sol:Lottery",
        "label": "subscrId",
        "offset": 0,
        "slot": "6",
        "type": "t_uint64"
      },
      {
        "astId": 1183,
        "contract": "contracts/Lottery.sol:Lottery",
        "label": "callbackGasLimit",
        "offset": 8,
        "slot": "6",
        "type": "t_uint32"
      },
      {
        "astId": 1185,
        "contract": "contracts/Lottery.sol:Lottery",
        "label": "coordinatorGasLane",
        "offset": 0,
        "slot": "7",
        "type": "t_bytes32"
      },
      {
        "astId": 1189,
        "contract": "contracts/Lottery.sol:Lottery",
        "label": "fundsAccounting",
        "offset": 0,
        "slot": "8",
        "type": "t_mapping(t_address,t_uint256)"
      }
    ],
    "types": {
      "t_address": {
        "encoding": "inplace",
        "label": "address",
        "numberOfBytes": "20"
      },
      "t_array(t_address)dyn_storage": {
        "base": "t_address",
        "encoding": "dynamic_array",
        "label": "address[]",
        "numberOfBytes": "32"
      },
      "t_bytes32": {
        "encoding": "inplace",
        "label": "bytes32",
        "numberOfBytes": "32"
      },
      "t_contract(CasinoToken)1131": {
        "encoding": "inplace",
        "label": "contract CasinoToken",
        "numberOfBytes": "20"
      },
      "t_contract(VRFCoordinatorV2Interface)153": {
        "encoding": "inplace",
        "label": "contract VRFCoordinatorV2Interface",
        "numberOfBytes": "20"
      },
      "t_mapping(t_address,t_uint256)": {
        "encoding": "mapping",
        "key": "t_address",
        "label": "mapping(address => uint256)",
        "numberOfBytes": "32",
        "value": "t_uint256"
      },
      "t_uint256": {
        "encoding": "inplace",
        "label": "uint256",
        "numberOfBytes": "32"
      },
      "t_uint32": {
        "encoding": "inplace",
        "label": "uint32",
        "numberOfBytes": "4"
      },
      "t_uint64": {
        "encoding": "inplace",
        "label": "uint64",
        "numberOfBytes": "8"
      }
    }
  }
}