{
  "address": "0x647b542609F48cc5dc2A3CE8F5DffF3aA2D5fEF8",
  "abi": [
    {
      "inputs": [],
      "stateMutability": "payable",
      "type": "constructor"
    },
    {
      "inputs": [],
      "name": "CasinoToken__InsufficientTokens",
      "type": "error"
    },
    {
      "anonymous": false,
      "inputs": [
        {
          "indexed": true,
          "internalType": "address",
          "name": "owner",
          "type": "address"
        },
        {
          "indexed": true,
          "internalType": "address",
          "name": "spender",
          "type": "address"
        },
        {
          "indexed": false,
          "internalType": "uint256",
          "name": "value",
          "type": "uint256"
        }
      ],
      "name": "Approval",
      "type": "event"
    },
    {
      "anonymous": false,
      "inputs": [
        {
          "indexed": true,
          "internalType": "address",
          "name": "previousOwner",
          "type": "address"
        },
        {
          "indexed": true,
          "internalType": "address",
          "name": "newOwner",
          "type": "address"
        }
      ],
      "name": "OwnershipTransferred",
      "type": "event"
    },
    {
      "anonymous": false,
      "inputs": [
        {
          "indexed": true,
          "internalType": "address",
          "name": "from",
          "type": "address"
        },
        {
          "indexed": true,
          "internalType": "address",
          "name": "to",
          "type": "address"
        },
        {
          "indexed": false,
          "internalType": "uint256",
          "name": "value",
          "type": "uint256"
        }
      ],
      "name": "Transfer",
      "type": "event"
    },
    {
      "inputs": [
        {
          "internalType": "address",
          "name": "owner",
          "type": "address"
        },
        {
          "internalType": "address",
          "name": "spender",
          "type": "address"
        }
      ],
      "name": "allowance",
      "outputs": [
        {
          "internalType": "uint256",
          "name": "",
          "type": "uint256"
        }
      ],
      "stateMutability": "view",
      "type": "function"
    },
    {
      "inputs": [
        {
          "internalType": "address",
          "name": "spender",
          "type": "address"
        },
        {
          "internalType": "uint256",
          "name": "amount",
          "type": "uint256"
        }
      ],
      "name": "approve",
      "outputs": [
        {
          "internalType": "bool",
          "name": "",
          "type": "bool"
        }
      ],
      "stateMutability": "nonpayable",
      "type": "function"
    },
    {
      "inputs": [
        {
          "internalType": "address",
          "name": "account",
          "type": "address"
        }
      ],
      "name": "balanceOf",
      "outputs": [
        {
          "internalType": "uint256",
          "name": "",
          "type": "uint256"
        }
      ],
      "stateMutability": "view",
      "type": "function"
    },
    {
      "inputs": [
        {
          "internalType": "uint256",
          "name": "amount",
          "type": "uint256"
        }
      ],
      "name": "burn",
      "outputs": [],
      "stateMutability": "nonpayable",
      "type": "function"
    },
    {
      "inputs": [
        {
          "internalType": "address",
          "name": "account",
          "type": "address"
        },
        {
          "internalType": "uint256",
          "name": "amount",
          "type": "uint256"
        }
      ],
      "name": "burnFrom",
      "outputs": [],
      "stateMutability": "nonpayable",
      "type": "function"
    },
    {
      "inputs": [],
      "name": "decimals",
      "outputs": [
        {
          "internalType": "uint8",
          "name": "",
          "type": "uint8"
        }
      ],
      "stateMutability": "pure",
      "type": "function"
    },
    {
      "inputs": [
        {
          "internalType": "address",
          "name": "spender",
          "type": "address"
        },
        {
          "internalType": "uint256",
          "name": "subtractedValue",
          "type": "uint256"
        }
      ],
      "name": "decreaseAllowance",
      "outputs": [
        {
          "internalType": "bool",
          "name": "",
          "type": "bool"
        }
      ],
      "stateMutability": "nonpayable",
      "type": "function"
    },
    {
      "inputs": [
        {
          "internalType": "address",
          "name": "spender",
          "type": "address"
        },
        {
          "internalType": "uint256",
          "name": "addedValue",
          "type": "uint256"
        }
      ],
      "name": "increaseAllowance",
      "outputs": [
        {
          "internalType": "bool",
          "name": "",
          "type": "bool"
        }
      ],
      "stateMutability": "nonpayable",
      "type": "function"
    },
    {
      "inputs": [
        {
          "internalType": "address",
          "name": "to",
          "type": "address"
        },
        {
          "internalType": "uint256",
          "name": "amount",
          "type": "uint256"
        }
      ],
      "name": "mint",
      "outputs": [],
      "stateMutability": "payable",
      "type": "function"
    },
    {
      "inputs": [],
      "name": "name",
      "outputs": [
        {
          "internalType": "string",
          "name": "",
          "type": "string"
        }
      ],
      "stateMutability": "view",
      "type": "function"
    },
    {
      "inputs": [],
      "name": "owner",
      "outputs": [
        {
          "internalType": "address",
          "name": "",
          "type": "address"
        }
      ],
      "stateMutability": "view",
      "type": "function"
    },
    {
      "inputs": [],
      "name": "renounceOwnership",
      "outputs": [],
      "stateMutability": "nonpayable",
      "type": "function"
    },
    {
      "inputs": [],
      "name": "symbol",
      "outputs": [
        {
          "internalType": "string",
          "name": "",
          "type": "string"
        }
      ],
      "stateMutability": "view",
      "type": "function"
    },
    {
      "inputs": [],
      "name": "totalSupply",
      "outputs": [
        {
          "internalType": "uint256",
          "name": "",
          "type": "uint256"
        }
      ],
      "stateMutability": "view",
      "type": "function"
    },
    {
      "inputs": [
        {
          "internalType": "address",
          "name": "to",
          "type": "address"
        },
        {
          "internalType": "uint256",
          "name": "amount",
          "type": "uint256"
        }
      ],
      "name": "transfer",
      "outputs": [
        {
          "internalType": "bool",
          "name": "",
          "type": "bool"
        }
      ],
      "stateMutability": "nonpayable",
      "type": "function"
    },
    {
      "inputs": [
        {
          "internalType": "address",
          "name": "from",
          "type": "address"
        },
        {
          "internalType": "address",
          "name": "to",
          "type": "address"
        },
        {
          "internalType": "uint256",
          "name": "amount",
          "type": "uint256"
        }
      ],
      "name": "transferFrom",
      "outputs": [
        {
          "internalType": "bool",
          "name": "",
          "type": "bool"
        }
      ],
      "stateMutability": "nonpayable",
      "type": "function"
    },
    {
      "inputs": [
        {
          "internalType": "address",
          "name": "newOwner",
          "type": "address"
        }
      ],
      "name": "transferOwnership",
      "outputs": [],
      "stateMutability": "nonpayable",
      "type": "function"
    }
  ],
  "transactionHash": "0x9e0463d58420c79d7d6a9d599740ae6f4e3874fe40c6a5a7b6ea89e31e8e8f11",
  "args": [],
  "numDeployments": 2,
  "solcInputHash": "8f45458bfeb916b20091e5789398e0ea",
  "bytecode": "0x60806040526040518060400160405280600c81526020017f436173696e6f20546f6b656e00000000000000000000000000000000000000008152506040518060400160405280600381526020017f43534e000000000000000000000000000000000000000000000000000000000081525081600390816200008191906200059f565b5080600490816200009391906200059f565b505050620000b6620000aa620000e060201b60201c565b620000e860201b60201c565b620000da336402540be40034620000ce9190620006e4565b620001ae60201b60201c565b62000808565b600033905090565b6000600560009054906101000a900473ffffffffffffffffffffffffffffffffffffffff16905081600560006101000a81548173ffffffffffffffffffffffffffffffffffffffff021916908373ffffffffffffffffffffffffffffffffffffffff1602179055508173ffffffffffffffffffffffffffffffffffffffff168173ffffffffffffffffffffffffffffffffffffffff167f8be0079c531659141344cd1fd0a4f28419497f9722a3daafe3b4186f6b6457e060405160405180910390a35050565b600073ffffffffffffffffffffffffffffffffffffffff168273ffffffffffffffffffffffffffffffffffffffff160362000220576040517f08c379a000000000000000000000000000000000000000000000000000000000815260040162000217906200077d565b60405180910390fd5b62000234600083836200031b60201b60201c565b80600260008282546200024891906200079f565b92505081905550806000808473ffffffffffffffffffffffffffffffffffffffff1673ffffffffffffffffffffffffffffffffffffffff168152602001908152602001600020600082825401925050819055508173ffffffffffffffffffffffffffffffffffffffff16600073ffffffffffffffffffffffffffffffffffffffff167fddf252ad1be2c89b69c2b068fc378daa952ba7f163c4a11628f55a4df523b3ef83604051620002fb9190620007eb565b60405180910390a362000317600083836200032060201b60201c565b5050565b505050565b505050565b600081519050919050565b7f4e487b7100000000000000000000000000000000000000000000000000000000600052604160045260246000fd5b7f4e487b7100000000000000000000000000000000000000000000000000000000600052602260045260246000fd5b60006002820490506001821680620003a757607f821691505b602082108103620003bd57620003bc6200035f565b5b50919050565b60008190508160005260206000209050919050565b60006020601f8301049050919050565b600082821b905092915050565b600060088302620004277fffffffffffffffffffffffffffffffffffffffffffffffffffffffffffffffff82620003e8565b620004338683620003e8565b95508019841693508086168417925050509392505050565b6000819050919050565b6000819050919050565b6000620004806200047a62000474846200044b565b62000455565b6200044b565b9050919050565b6000819050919050565b6200049c836200045f565b620004b4620004ab8262000487565b848454620003f5565b825550505050565b600090565b620004cb620004bc565b620004d881848462000491565b505050565b5b818110156200050057620004f4600082620004c1565b600181019050620004de565b5050565b601f8211156200054f576200051981620003c3565b6200052484620003d8565b8101602085101562000534578190505b6200054c6200054385620003d8565b830182620004dd565b50505b505050565b600082821c905092915050565b6000620005746000198460080262000554565b1980831691505092915050565b60006200058f838362000561565b9150826002028217905092915050565b620005aa8262000325565b67ffffffffffffffff811115620005c657620005c562000330565b5b620005d282546200038e565b620005df82828562000504565b600060209050601f83116001811462000617576000841562000602578287015190505b6200060e858262000581565b8655506200067e565b601f1984166200062786620003c3565b60005b8281101562000651578489015182556001820191506020850194506020810190506200062a565b868310156200067157848901516200066d601f89168262000561565b8355505b6001600288020188555050505b505050505050565b7f4e487b7100000000000000000000000000000000000000000000000000000000600052601260045260246000fd5b7f4e487b7100000000000000000000000000000000000000000000000000000000600052601160045260246000fd5b6000620006f1826200044b565b9150620006fe836200044b565b92508262000711576200071062000686565b5b828204905092915050565b600082825260208201905092915050565b7f45524332303a206d696e7420746f20746865207a65726f206164647265737300600082015250565b600062000765601f836200071c565b915062000772826200072d565b602082019050919050565b60006020820190508181036000830152620007988162000756565b9050919050565b6000620007ac826200044b565b9150620007b9836200044b565b9250828201905080821115620007d457620007d3620006b5565b5b92915050565b620007e5816200044b565b82525050565b6000602082019050620008026000830184620007da565b92915050565b611e2f80620008186000396000f3fe6080604052600436106100fe5760003560e01c806370a082311161009557806395d89b411161006457806395d89b4114610328578063a457c2d714610353578063a9059cbb14610390578063dd62ed3e146103cd578063f2fde38b1461040a576100fe565b806370a0823114610280578063715018a6146102bd57806379cc6790146102d45780638da5cb5b146102fd576100fe565b8063313ce567116100d1578063313ce567146101d357806339509351146101fe57806340c10f191461023b57806342966c6814610257576100fe565b806306fdde0314610103578063095ea7b31461012e57806318160ddd1461016b57806323b872dd14610196575b600080fd5b34801561010f57600080fd5b50610118610433565b60405161012591906112f3565b60405180910390f35b34801561013a57600080fd5b50610155600480360381019061015091906113ae565b6104c5565b6040516101629190611409565b60405180910390f35b34801561017757600080fd5b506101806104e8565b60405161018d9190611433565b60405180910390f35b3480156101a257600080fd5b506101bd60048036038101906101b8919061144e565b6104f2565b6040516101ca9190611409565b60405180910390f35b3480156101df57600080fd5b506101e8610521565b6040516101f591906114bd565b60405180910390f35b34801561020a57600080fd5b50610225600480360381019061022091906113ae565b61052a565b6040516102329190611409565b60405180910390f35b610255600480360381019061025091906113ae565b610561565b005b34801561026357600080fd5b5061027e600480360381019061027991906114d8565b6105c5565b005b34801561028c57600080fd5b506102a760048036038101906102a29190611505565b610643565b6040516102b49190611433565b60405180910390f35b3480156102c957600080fd5b506102d261068b565b005b3480156102e057600080fd5b506102fb60048036038101906102f691906113ae565b61069f565b005b34801561030957600080fd5b506103126106bf565b60405161031f9190611541565b60405180910390f35b34801561033457600080fd5b5061033d6106e9565b60405161034a91906112f3565b60405180910390f35b34801561035f57600080fd5b5061037a600480360381019061037591906113ae565b61077b565b6040516103879190611409565b60405180910390f35b34801561039c57600080fd5b506103b760048036038101906103b291906113ae565b6107f2565b6040516103c49190611409565b60405180910390f35b3480156103d957600080fd5b506103f460048036038101906103ef919061155c565b610815565b6040516104019190611433565b60405180910390f35b34801561041657600080fd5b50610431600480360381019061042c9190611505565b61089c565b005b606060038054610442906115cb565b80601f016020809104026020016040519081016040528092919081815260200182805461046e906115cb565b80156104bb5780601f10610490576101008083540402835291602001916104bb565b820191906000526020600020905b81548152906001019060200180831161049e57829003601f168201915b5050505050905090565b6000806104d061091f565b90506104dd818585610927565b600191505092915050565b6000600254905090565b6000806104fd61091f565b905061050a858285610af0565b610515858585610b7c565b60019150509392505050565b60006004905090565b60008061053561091f565b90506105568185856105478589610815565b610551919061162b565b610927565b600191505092915050565b80346402540be4008282610575919061168e565b146105b5576040517f08c379a00000000000000000000000000000000000000000000000000000000081526004016105ac90611731565b60405180910390fd5b6105bf8484610df2565b50505050565b6105d66105d061091f565b82610f48565b60006105e061091f565b905060006402540be400836105f59190611751565b90508173ffffffffffffffffffffffffffffffffffffffff166108fc829081150290604051600060405180830381858888f1935050505015801561063d573d6000803e3d6000fd5b50505050565b60008060008373ffffffffffffffffffffffffffffffffffffffff1673ffffffffffffffffffffffffffffffffffffffff168152602001908152602001600020549050919050565b610693611115565b61069d6000611193565b565b6106b1826106ab61091f565b83610af0565b6106bb8282610f48565b5050565b6000600560009054906101000a900473ffffffffffffffffffffffffffffffffffffffff16905090565b6060600480546106f8906115cb565b80601f0160208091040260200160405190810160405280929190818152602001828054610724906115cb565b80156107715780601f1061074657610100808354040283529160200191610771565b820191906000526020600020905b81548152906001019060200180831161075457829003601f168201915b5050505050905090565b60008061078661091f565b905060006107948286610815565b9050838110156107d9576040517f08c379a00000000000000000000000000000000000000000000000000000000081526004016107d090611805565b60405180910390fd5b6107e68286868403610927565b60019250505092915050565b6000806107fd61091f565b905061080a818585610b7c565b600191505092915050565b6000600160008473ffffffffffffffffffffffffffffffffffffffff1673ffffffffffffffffffffffffffffffffffffffff16815260200190815260200160002060008373ffffffffffffffffffffffffffffffffffffffff1673ffffffffffffffffffffffffffffffffffffffff16815260200190815260200160002054905092915050565b6108a4611115565b600073ffffffffffffffffffffffffffffffffffffffff168173ffffffffffffffffffffffffffffffffffffffff1603610913576040517f08c379a000000000000000000000000000000000000000000000000000000000815260040161090a90611897565b60405180910390fd5b61091c81611193565b50565b600033905090565b600073ffffffffffffffffffffffffffffffffffffffff168373ffffffffffffffffffffffffffffffffffffffff1603610996576040517f08c379a000000000000000000000000000000000000000000000000000000000815260040161098d90611929565b60405180910390fd5b600073ffffffffffffffffffffffffffffffffffffffff168273ffffffffffffffffffffffffffffffffffffffff1603610a05576040517f08c379a00000000000000000000000000000000000000000000000000000000081526004016109fc906119bb565b60405180910390fd5b80600160008573ffffffffffffffffffffffffffffffffffffffff1673ffffffffffffffffffffffffffffffffffffffff16815260200190815260200160002060008473ffffffffffffffffffffffffffffffffffffffff1673ffffffffffffffffffffffffffffffffffffffff168152602001908152602001600020819055508173ffffffffffffffffffffffffffffffffffffffff168373ffffffffffffffffffffffffffffffffffffffff167f8c5be1e5ebec7d5bd14f71427d1e84f3dd0314c0f7b2291e5b200ac8c7c3b92583604051610ae39190611433565b60405180910390a3505050565b6000610afc8484610815565b90507fffffffffffffffffffffffffffffffffffffffffffffffffffffffffffffffff8114610b765781811015610b68576040517f08c379a0000000000000000000000000000000000000000000000000000000008152600401610b5f90611a27565b60405180910390fd5b610b758484848403610927565b5b50505050565b600073ffffffffffffffffffffffffffffffffffffffff168373ffffffffffffffffffffffffffffffffffffffff1603610beb576040517f08c379a0000000000000000000000000000000000000000000000000000000008152600401610be290611ab9565b60405180910390fd5b600073ffffffffffffffffffffffffffffffffffffffff168273ffffffffffffffffffffffffffffffffffffffff1603610c5a576040517f08c379a0000000000000000000000000000000000000000000000000000000008152600401610c5190611b4b565b60405180910390fd5b610c65838383611259565b60008060008573ffffffffffffffffffffffffffffffffffffffff1673ffffffffffffffffffffffffffffffffffffffff16815260200190815260200160002054905081811015610ceb576040517f08c379a0000000000000000000000000000000000000000000000000000000008152600401610ce290611bdd565b60405180910390fd5b8181036000808673ffffffffffffffffffffffffffffffffffffffff1673ffffffffffffffffffffffffffffffffffffffff16815260200190815260200160002081905550816000808573ffffffffffffffffffffffffffffffffffffffff1673ffffffffffffffffffffffffffffffffffffffff168152602001908152602001600020600082825401925050819055508273ffffffffffffffffffffffffffffffffffffffff168473ffffffffffffffffffffffffffffffffffffffff167fddf252ad1be2c89b69c2b068fc378daa952ba7f163c4a11628f55a4df523b3ef84604051610dd99190611433565b60405180910390a3610dec84848461125e565b50505050565b600073ffffffffffffffffffffffffffffffffffffffff168273ffffffffffffffffffffffffffffffffffffffff1603610e61576040517f08c379a0000000000000000000000000000000000000000000000000000000008152600401610e5890611c49565b60405180910390fd5b610e6d60008383611259565b8060026000828254610e7f919061162b565b92505081905550806000808473ffffffffffffffffffffffffffffffffffffffff1673ffffffffffffffffffffffffffffffffffffffff168152602001908152602001600020600082825401925050819055508173ffffffffffffffffffffffffffffffffffffffff16600073ffffffffffffffffffffffffffffffffffffffff167fddf252ad1be2c89b69c2b068fc378daa952ba7f163c4a11628f55a4df523b3ef83604051610f309190611433565b60405180910390a3610f446000838361125e565b5050565b600073ffffffffffffffffffffffffffffffffffffffff168273ffffffffffffffffffffffffffffffffffffffff1603610fb7576040517f08c379a0000000000000000000000000000000000000000000000000000000008152600401610fae90611cdb565b60405180910390fd5b610fc382600083611259565b60008060008473ffffffffffffffffffffffffffffffffffffffff1673ffffffffffffffffffffffffffffffffffffffff16815260200190815260200160002054905081811015611049576040517f08c379a000000000000000000000000000000000000000000000000000000000815260040161104090611d6d565b60405180910390fd5b8181036000808573ffffffffffffffffffffffffffffffffffffffff1673ffffffffffffffffffffffffffffffffffffffff1681526020019081526020016000208190555081600260008282540392505081905550600073ffffffffffffffffffffffffffffffffffffffff168373ffffffffffffffffffffffffffffffffffffffff167fddf252ad1be2c89b69c2b068fc378daa952ba7f163c4a11628f55a4df523b3ef846040516110fc9190611433565b60405180910390a36111108360008461125e565b505050565b61111d61091f565b73ffffffffffffffffffffffffffffffffffffffff1661113b6106bf565b73ffffffffffffffffffffffffffffffffffffffff1614611191576040517f08c379a000000000000000000000000000000000000000000000000000000000815260040161118890611dd9565b60405180910390fd5b565b6000600560009054906101000a900473ffffffffffffffffffffffffffffffffffffffff16905081600560006101000a81548173ffffffffffffffffffffffffffffffffffffffff021916908373ffffffffffffffffffffffffffffffffffffffff1602179055508173ffffffffffffffffffffffffffffffffffffffff168173ffffffffffffffffffffffffffffffffffffffff167f8be0079c531659141344cd1fd0a4f28419497f9722a3daafe3b4186f6b6457e060405160405180910390a35050565b505050565b505050565b600081519050919050565b600082825260208201905092915050565b60005b8381101561129d578082015181840152602081019050611282565b60008484015250505050565b6000601f19601f8301169050919050565b60006112c582611263565b6112cf818561126e565b93506112df81856020860161127f565b6112e8816112a9565b840191505092915050565b6000602082019050818103600083015261130d81846112ba565b905092915050565b600080fd5b600073ffffffffffffffffffffffffffffffffffffffff82169050919050565b60006113458261131a565b9050919050565b6113558161133a565b811461136057600080fd5b50565b6000813590506113728161134c565b92915050565b6000819050919050565b61138b81611378565b811461139657600080fd5b50565b6000813590506113a881611382565b92915050565b600080604083850312156113c5576113c4611315565b5b60006113d385828601611363565b92505060206113e485828601611399565b9150509250929050565b60008115159050919050565b611403816113ee565b82525050565b600060208201905061141e60008301846113fa565b92915050565b61142d81611378565b82525050565b60006020820190506114486000830184611424565b92915050565b60008060006060848603121561146757611466611315565b5b600061147586828701611363565b935050602061148686828701611363565b925050604061149786828701611399565b9150509250925092565b600060ff82169050919050565b6114b7816114a1565b82525050565b60006020820190506114d260008301846114ae565b92915050565b6000602082840312156114ee576114ed611315565b5b60006114fc84828501611399565b91505092915050565b60006020828403121561151b5761151a611315565b5b600061152984828501611363565b91505092915050565b61153b8161133a565b82525050565b60006020820190506115566000830184611532565b92915050565b6000806040838503121561157357611572611315565b5b600061158185828601611363565b925050602061159285828601611363565b9150509250929050565b7f4e487b7100000000000000000000000000000000000000000000000000000000600052602260045260246000fd5b600060028204905060018216806115e357607f821691505b6020821081036115f6576115f561159c565b5b50919050565b7f4e487b7100000000000000000000000000000000000000000000000000000000600052601160045260246000fd5b600061163682611378565b915061164183611378565b9250828201905080821115611659576116586115fc565b5b92915050565b7f4e487b7100000000000000000000000000000000000000000000000000000000600052601260045260246000fd5b600061169982611378565b91506116a483611378565b9250826116b4576116b361165f565b5b828204905092915050565b7f496e617070726f70726961746520616d6f756e74206f6620657468657220707260008201527f6f76696465640000000000000000000000000000000000000000000000000000602082015250565b600061171b60268361126e565b9150611726826116bf565b604082019050919050565b6000602082019050818103600083015261174a8161170e565b9050919050565b600061175c82611378565b915061176783611378565b925082820261177581611378565b9150828204841483151761178c5761178b6115fc565b5b5092915050565b7f45524332303a2064656372656173656420616c6c6f77616e63652062656c6f7760008201527f207a65726f000000000000000000000000000000000000000000000000000000602082015250565b60006117ef60258361126e565b91506117fa82611793565b604082019050919050565b6000602082019050818103600083015261181e816117e2565b9050919050565b7f4f776e61626c653a206e6577206f776e657220697320746865207a65726f206160008201527f6464726573730000000000000000000000000000000000000000000000000000602082015250565b600061188160268361126e565b915061188c82611825565b604082019050919050565b600060208201905081810360008301526118b081611874565b9050919050565b7f45524332303a20617070726f76652066726f6d20746865207a65726f2061646460008201527f7265737300000000000000000000000000000000000000000000000000000000602082015250565b600061191360248361126e565b915061191e826118b7565b604082019050919050565b6000602082019050818103600083015261194281611906565b9050919050565b7f45524332303a20617070726f766520746f20746865207a65726f20616464726560008201527f7373000000000000000000000000000000000000000000000000000000000000602082015250565b60006119a560228361126e565b91506119b082611949565b604082019050919050565b600060208201905081810360008301526119d481611998565b9050919050565b7f45524332303a20696e73756666696369656e7420616c6c6f77616e6365000000600082015250565b6000611a11601d8361126e565b9150611a1c826119db565b602082019050919050565b60006020820190508181036000830152611a4081611a04565b9050919050565b7f45524332303a207472616e736665722066726f6d20746865207a65726f20616460008201527f6472657373000000000000000000000000000000000000000000000000000000602082015250565b6000611aa360258361126e565b9150611aae82611a47565b604082019050919050565b60006020820190508181036000830152611ad281611a96565b9050919050565b7f45524332303a207472616e7366657220746f20746865207a65726f206164647260008201527f6573730000000000000000000000000000000000000000000000000000000000602082015250565b6000611b3560238361126e565b9150611b4082611ad9565b604082019050919050565b60006020820190508181036000830152611b6481611b28565b9050919050565b7f45524332303a207472616e7366657220616d6f756e742065786365656473206260008201527f616c616e63650000000000000000000000000000000000000000000000000000602082015250565b6000611bc760268361126e565b9150611bd282611b6b565b604082019050919050565b60006020820190508181036000830152611bf681611bba565b9050919050565b7f45524332303a206d696e7420746f20746865207a65726f206164647265737300600082015250565b6000611c33601f8361126e565b9150611c3e82611bfd565b602082019050919050565b60006020820190508181036000830152611c6281611c26565b9050919050565b7f45524332303a206275726e2066726f6d20746865207a65726f2061646472657360008201527f7300000000000000000000000000000000000000000000000000000000000000602082015250565b6000611cc560218361126e565b9150611cd082611c69565b604082019050919050565b60006020820190508181036000830152611cf481611cb8565b9050919050565b7f45524332303a206275726e20616d6f756e7420657863656564732062616c616e60008201527f6365000000000000000000000000000000000000000000000000000000000000602082015250565b6000611d5760228361126e565b9150611d6282611cfb565b604082019050919050565b60006020820190508181036000830152611d8681611d4a565b9050919050565b7f4f776e61626c653a2063616c6c6572206973206e6f7420746865206f776e6572600082015250565b6000611dc360208361126e565b9150611dce82611d8d565b602082019050919050565b60006020820190508181036000830152611df281611db6565b905091905056fea2646970667358221220b1e4d9510d3babcc486f1c22b1068c144d3986cd9a58fbdb5923fafd94adc42264736f6c63430008110033",
  "devdoc": {
    "kind": "dev",
    "methods": {
      "allowance(address,address)": {
        "details": "See {IERC20-allowance}."
      },
      "approve(address,uint256)": {
        "details": "See {IERC20-approve}. NOTE: If `amount` is the maximum `uint256`, the allowance is not updated on `transferFrom`. This is semantically equivalent to an infinite approval. Requirements: - `spender` cannot be the zero address."
      },
      "balanceOf(address)": {
        "details": "See {IERC20-balanceOf}."
      },
      "burn(uint256)": {
        "details": "Destroys `amount` tokens from the caller. See {ERC20-_burn}."
      },
      "burnFrom(address,uint256)": {
        "details": "Destroys `amount` tokens from `account`, deducting from the caller's allowance. See {ERC20-_burn} and {ERC20-allowance}. Requirements: - the caller must have allowance for ``accounts``'s tokens of at least `amount`."
      },
      "decimals()": {
        "details": "Returns the number of decimals used to get its user representation. For example, if `decimals` equals `2`, a balance of `505` tokens should be displayed to a user as `5.05` (`505 / 10 ** 2`). Tokens usually opt for a value of 18, imitating the relationship between Ether and Wei. This is the value {ERC20} uses, unless this function is overridden; NOTE: This information is only used for _display_ purposes: it in no way affects any of the arithmetic of the contract, including {IERC20-balanceOf} and {IERC20-transfer}."
      },
      "decreaseAllowance(address,uint256)": {
        "details": "Atomically decreases the allowance granted to `spender` by the caller. This is an alternative to {approve} that can be used as a mitigation for problems described in {IERC20-approve}. Emits an {Approval} event indicating the updated allowance. Requirements: - `spender` cannot be the zero address. - `spender` must have allowance for the caller of at least `subtractedValue`."
      },
      "increaseAllowance(address,uint256)": {
        "details": "Atomically increases the allowance granted to `spender` by the caller. This is an alternative to {approve} that can be used as a mitigation for problems described in {IERC20-approve}. Emits an {Approval} event indicating the updated allowance. Requirements: - `spender` cannot be the zero address."
      },
      "name()": {
        "details": "Returns the name of the token."
      },
      "owner()": {
        "details": "Returns the address of the current owner."
      },
      "renounceOwnership()": {
        "details": "Leaves the contract without owner. It will not be possible to call `onlyOwner` functions anymore. Can only be called by the current owner. NOTE: Renouncing ownership will leave the contract without an owner, thereby removing any functionality that is only available to the owner."
      },
      "symbol()": {
        "details": "Returns the symbol of the token, usually a shorter version of the name."
      },
      "totalSupply()": {
        "details": "See {IERC20-totalSupply}."
      },
      "transfer(address,uint256)": {
        "details": "See {IERC20-transfer}. Requirements: - `to` cannot be the zero address. - the caller must have a balance of at least `amount`."
      },
      "transferFrom(address,address,uint256)": {
        "details": "See {IERC20-transferFrom}. Emits an {Approval} event indicating the updated allowance. This is not required by the EIP. See the note at the beginning of {ERC20}. NOTE: Does not update the allowance if the current allowance is the maximum `uint256`. Requirements: - `from` and `to` cannot be the zero address. - `from` must have a balance of at least `amount`. - the caller must have allowance for ``from``'s tokens of at least `amount`."
      },
      "transferOwnership(address)": {
        "details": "Transfers ownership of the contract to a new account (`newOwner`). Can only be called by the current owner."
      }
    },
    "version": 1
  },
  "userdoc": {
    "kind": "user",
    "methods": {},
    "version": 1
  },
  "storageLayout": {
    "storage": [
      {
        "astId": 282,
        "contract": "contracts/CasinoToken.sol:CasinoToken",
        "label": "_balances",
        "offset": 0,
        "slot": "0",
        "type": "t_mapping(t_address,t_uint256)"
      },
      {
        "astId": 288,
        "contract": "contracts/CasinoToken.sol:CasinoToken",
        "label": "_allowances",
        "offset": 0,
        "slot": "1",
        "type": "t_mapping(t_address,t_mapping(t_address,t_uint256))"
      },
      {
        "astId": 290,
        "contract": "contracts/CasinoToken.sol:CasinoToken",
        "label": "_totalSupply",
        "offset": 0,
        "slot": "2",
        "type": "t_uint256"
      },
      {
        "astId": 292,
        "contract": "contracts/CasinoToken.sol:CasinoToken",
        "label": "_name",
        "offset": 0,
        "slot": "3",
        "type": "t_string_storage"
      },
      {
        "astId": 294,
        "contract": "contracts/CasinoToken.sol:CasinoToken",
        "label": "_symbol",
        "offset": 0,
        "slot": "4",
        "type": "t_string_storage"
      },
      {
        "astId": 161,
        "contract": "contracts/CasinoToken.sol:CasinoToken",
        "label": "_owner",
        "offset": 0,
        "slot": "5",
        "type": "t_address"
      }
    ],
    "types": {
      "t_address": {
        "encoding": "inplace",
        "label": "address",
        "numberOfBytes": "20"
      },
      "t_mapping(t_address,t_mapping(t_address,t_uint256))": {
        "encoding": "mapping",
        "key": "t_address",
        "label": "mapping(address => mapping(address => uint256))",
        "numberOfBytes": "32",
        "value": "t_mapping(t_address,t_uint256)"
      },
      "t_mapping(t_address,t_uint256)": {
        "encoding": "mapping",
        "key": "t_address",
        "label": "mapping(address => uint256)",
        "numberOfBytes": "32",
        "value": "t_uint256"
      },
      "t_string_storage": {
        "encoding": "bytes",
        "label": "string",
        "numberOfBytes": "32"
      },
      "t_uint256": {
        "encoding": "inplace",
        "label": "uint256",
        "numberOfBytes": "32"
      }
    }
  }
}